{
  "_format": "hh-sol-artifact-1",
  "contractName": "Crypto_NFT",
  "sourceName": "contracts/Crypto_NFT.sol",
  "abi": [
    {
      "inputs": [],
      "stateMutability": "nonpayable",
      "type": "constructor"
    },
    {
      "anonymous": false,
      "inputs": [
        {
          "indexed": true,
          "internalType": "address",
          "name": "owner",
          "type": "address"
        },
        {
          "indexed": true,
          "internalType": "address",
          "name": "approved",
          "type": "address"
        },
        {
          "indexed": true,
          "internalType": "uint256",
          "name": "tokenId",
          "type": "uint256"
        }
      ],
      "name": "Approval",
      "type": "event"
    },
    {
      "anonymous": false,
      "inputs": [
        {
          "indexed": true,
          "internalType": "address",
          "name": "owner",
          "type": "address"
        },
        {
          "indexed": true,
          "internalType": "address",
          "name": "operator",
          "type": "address"
        },
        {
          "indexed": false,
          "internalType": "bool",
          "name": "approved",
          "type": "bool"
        }
      ],
      "name": "ApprovalForAll",
      "type": "event"
    },
    {
      "anonymous": false,
      "inputs": [
        {
          "indexed": true,
          "internalType": "address",
          "name": "previousOwner",
          "type": "address"
        },
        {
          "indexed": true,
          "internalType": "address",
          "name": "newOwner",
          "type": "address"
        }
      ],
      "name": "OwnershipTransferred",
      "type": "event"
    },
    {
      "anonymous": false,
      "inputs": [
        {
          "indexed": true,
          "internalType": "address",
          "name": "from",
          "type": "address"
        },
        {
          "indexed": true,
          "internalType": "address",
          "name": "to",
          "type": "address"
        },
        {
          "indexed": true,
          "internalType": "uint256",
          "name": "tokenId",
          "type": "uint256"
        }
      ],
      "name": "Transfer",
      "type": "event"
    },
    {
      "inputs": [
        {
          "internalType": "address",
          "name": "to",
          "type": "address"
        },
        {
          "internalType": "uint256",
          "name": "tokenId",
          "type": "uint256"
        }
      ],
      "name": "approve",
      "outputs": [],
      "stateMutability": "nonpayable",
      "type": "function"
    },
    {
      "inputs": [
        {
          "internalType": "address",
          "name": "owner",
          "type": "address"
        }
      ],
      "name": "balanceOf",
      "outputs": [
        {
          "internalType": "uint256",
          "name": "",
          "type": "uint256"
        }
      ],
      "stateMutability": "view",
      "type": "function"
    },
    {
      "inputs": [
        {
          "internalType": "uint256",
          "name": "tokenId",
          "type": "uint256"
        }
      ],
      "name": "getApproved",
      "outputs": [
        {
          "internalType": "address",
          "name": "",
          "type": "address"
        }
      ],
      "stateMutability": "view",
      "type": "function"
    },
    {
      "inputs": [
        {
          "internalType": "address",
          "name": "owner",
          "type": "address"
        },
        {
          "internalType": "address",
          "name": "operator",
          "type": "address"
        }
      ],
      "name": "isApprovedForAll",
      "outputs": [
        {
          "internalType": "bool",
          "name": "",
          "type": "bool"
        }
      ],
      "stateMutability": "view",
      "type": "function"
    },
    {
      "inputs": [
        {
          "internalType": "address",
          "name": "recipient",
          "type": "address"
        },
        {
          "internalType": "string",
          "name": "_tokenURI",
          "type": "string"
        }
      ],
      "name": "mintNFT",
      "outputs": [
        {
          "internalType": "uint256",
          "name": "",
          "type": "uint256"
        }
      ],
      "stateMutability": "nonpayable",
      "type": "function"
    },
    {
      "inputs": [],
      "name": "name",
      "outputs": [
        {
          "internalType": "string",
          "name": "",
          "type": "string"
        }
      ],
      "stateMutability": "view",
      "type": "function"
    },
    {
      "inputs": [],
      "name": "owner",
      "outputs": [
        {
          "internalType": "address",
          "name": "",
          "type": "address"
        }
      ],
      "stateMutability": "view",
      "type": "function"
    },
    {
      "inputs": [
        {
          "internalType": "uint256",
          "name": "tokenId",
          "type": "uint256"
        }
      ],
      "name": "ownerOf",
      "outputs": [
        {
          "internalType": "address",
          "name": "",
          "type": "address"
        }
      ],
      "stateMutability": "view",
      "type": "function"
    },
    {
      "inputs": [],
      "name": "renounceOwnership",
      "outputs": [],
      "stateMutability": "nonpayable",
      "type": "function"
    },
    {
      "inputs": [
        {
          "internalType": "address",
          "name": "from",
          "type": "address"
        },
        {
          "internalType": "address",
          "name": "to",
          "type": "address"
        },
        {
          "internalType": "uint256",
          "name": "tokenId",
          "type": "uint256"
        }
      ],
      "name": "safeTransferFrom",
      "outputs": [],
      "stateMutability": "nonpayable",
      "type": "function"
    },
    {
      "inputs": [
        {
          "internalType": "address",
          "name": "from",
          "type": "address"
        },
        {
          "internalType": "address",
          "name": "to",
          "type": "address"
        },
        {
          "internalType": "uint256",
          "name": "tokenId",
          "type": "uint256"
        },
        {
          "internalType": "bytes",
          "name": "data",
          "type": "bytes"
        }
      ],
      "name": "safeTransferFrom",
      "outputs": [],
      "stateMutability": "nonpayable",
      "type": "function"
    },
    {
      "inputs": [
        {
          "internalType": "address",
          "name": "operator",
          "type": "address"
        },
        {
          "internalType": "bool",
          "name": "approved",
          "type": "bool"
        }
      ],
      "name": "setApprovalForAll",
      "outputs": [],
      "stateMutability": "nonpayable",
      "type": "function"
    },
    {
      "inputs": [
        {
          "internalType": "bytes4",
          "name": "interfaceId",
          "type": "bytes4"
        }
      ],
      "name": "supportsInterface",
      "outputs": [
        {
          "internalType": "bool",
          "name": "",
          "type": "bool"
        }
      ],
      "stateMutability": "view",
      "type": "function"
    },
    {
      "inputs": [],
      "name": "symbol",
      "outputs": [
        {
          "internalType": "string",
          "name": "",
          "type": "string"
        }
      ],
      "stateMutability": "view",
      "type": "function"
    },
    {
      "inputs": [
        {
          "internalType": "uint256",
          "name": "tokenId",
          "type": "uint256"
        }
      ],
      "name": "tokenURI",
      "outputs": [
        {
          "internalType": "string",
          "name": "",
          "type": "string"
        }
      ],
      "stateMutability": "view",
      "type": "function"
    },
    {
      "inputs": [
        {
          "internalType": "address",
          "name": "from",
          "type": "address"
        },
        {
          "internalType": "address",
          "name": "to",
          "type": "address"
        },
        {
          "internalType": "uint256",
          "name": "tokenId",
          "type": "uint256"
        }
      ],
      "name": "transferFrom",
      "outputs": [],
      "stateMutability": "nonpayable",
      "type": "function"
    },
    {
      "inputs": [
        {
          "internalType": "address",
          "name": "newOwner",
          "type": "address"
        }
      ],
      "name": "transferOwnership",
      "outputs": [],
      "stateMutability": "nonpayable",
      "type": "function"
    }
  ],
  "bytecode": "0x60806040523480156200001157600080fd5b506040518060400160405280600a81526020017f43727970746f5f4e4654000000000000000000000000000000000000000000008152506040518060400160405280600381526020017f4e46540000000000000000000000000000000000000000000000000000000000815250816000908051906020019062000096929190620001a6565b508060019080519060200190620000af929190620001a6565b505050620000d2620000c6620000d860201b60201c565b620000e060201b60201c565b620002bb565b600033905090565b6000600760009054906101000a900473ffffffffffffffffffffffffffffffffffffffff16905081600760006101000a81548173ffffffffffffffffffffffffffffffffffffffff021916908373ffffffffffffffffffffffffffffffffffffffff1602179055508173ffffffffffffffffffffffffffffffffffffffff168173ffffffffffffffffffffffffffffffffffffffff167f8be0079c531659141344cd1fd0a4f28419497f9722a3daafe3b4186f6b6457e060405160405180910390a35050565b828054620001b49062000285565b90600052602060002090601f016020900481019282620001d8576000855562000224565b82601f10620001f357805160ff191683800117855562000224565b8280016001018555821562000224579182015b828111156200022357825182559160200191906001019062000206565b5b50905062000233919062000237565b5090565b5b808211156200025257600081600090555060010162000238565b5090565b7f4e487b7100000000000000000000000000000000000000000000000000000000600052602260045260246000fd5b600060028204905060018216806200029e57607f821691505b60208210811415620002b557620002b462000256565b5b50919050565b61296580620002cb6000396000f3fe608060405234801561001057600080fd5b506004361061010b5760003560e01c8063715018a6116100a2578063b88d4fde11610071578063b88d4fde146102a4578063c87b56dd146102c0578063e985e9c5146102f0578063eacabe1414610320578063f2fde38b146103505761010b565b8063715018a6146102425780638da5cb5b1461024c57806395d89b411461026a578063a22cb465146102885761010b565b806323b872dd116100de57806323b872dd146101aa57806342842e0e146101c65780636352211e146101e257806370a08231146102125761010b565b806301ffc9a71461011057806306fdde0314610140578063081812fc1461015e578063095ea7b31461018e575b600080fd5b61012a600480360381019061012591906118e6565b61036c565b604051610137919061192e565b60405180910390f35b61014861044e565b60405161015591906119e2565b60405180910390f35b61017860048036038101906101739190611a3a565b6104e0565b6040516101859190611aa8565b60405180910390f35b6101a860048036038101906101a39190611aef565b610526565b005b6101c460048036038101906101bf9190611b2f565b61063e565b005b6101e060048036038101906101db9190611b2f565b61069e565b005b6101fc60048036038101906101f79190611a3a565b6106be565b6040516102099190611aa8565b60405180910390f35b61022c60048036038101906102279190611b82565b610770565b6040516102399190611bbe565b60405180910390f35b61024a610828565b005b61025461083c565b6040516102619190611aa8565b60405180910390f35b610272610866565b60405161027f91906119e2565b60405180910390f35b6102a2600480360381019061029d9190611c05565b6108f8565b005b6102be60048036038101906102b99190611d7a565b61090e565b005b6102da60048036038101906102d59190611a3a565b610970565b6040516102e791906119e2565b60405180910390f35b61030a60048036038101906103059190611dfd565b6109b1565b604051610317919061192e565b60405180910390f35b61033a60048036038101906103359190611ede565b610a45565b6040516103479190611bbe565b60405180910390f35b61036a60048036038101906103659190611b82565b610a85565b005b60007f80ac58cd000000000000000000000000000000000000000000000000000000007bffffffffffffffffffffffffffffffffffffffffffffffffffffffff1916827bffffffffffffffffffffffffffffffffffffffffffffffffffffffff1916148061043757507f5b5e139f000000000000000000000000000000000000000000000000000000007bffffffffffffffffffffffffffffffffffffffffffffffffffffffff1916827bffffffffffffffffffffffffffffffffffffffffffffffffffffffff1916145b80610447575061044682610a99565b5b9050919050565b60606000805461045d90611f69565b80601f016020809104026020016040519081016040528092919081815260200182805461048990611f69565b80156104d65780601f106104ab576101008083540402835291602001916104d6565b820191906000526020600020905b8154815290600101906020018083116104b957829003601f168201915b5050505050905090565b60006104eb82610b03565b6004600083815260200190815260200160002060009054906101000a900473ffffffffffffffffffffffffffffffffffffffff169050919050565b6000610531826106be565b90508073ffffffffffffffffffffffffffffffffffffffff168373ffffffffffffffffffffffffffffffffffffffff1614156105a2576040517f08c379a00000000000000000000000000000000000000000000000000000000081526004016105999061200d565b60405180910390fd5b8073ffffffffffffffffffffffffffffffffffffffff166105c1610b4e565b73ffffffffffffffffffffffffffffffffffffffff1614806105f057506105ef816105ea610b4e565b6109b1565b5b61062f576040517f08c379a00000000000000000000000000000000000000000000000000000000081526004016106269061209f565b60405180910390fd5b6106398383610b56565b505050565b61064f610649610b4e565b82610c0f565b61068e576040517f08c379a000000000000000000000000000000000000000000000000000000000815260040161068590612131565b60405180910390fd5b610699838383610ca4565b505050565b6106b98383836040518060200160405280600081525061090e565b505050565b6000806002600084815260200190815260200160002060009054906101000a900473ffffffffffffffffffffffffffffffffffffffff169050600073ffffffffffffffffffffffffffffffffffffffff168173ffffffffffffffffffffffffffffffffffffffff161415610767576040517f08c379a000000000000000000000000000000000000000000000000000000000815260040161075e9061219d565b60405180910390fd5b80915050919050565b60008073ffffffffffffffffffffffffffffffffffffffff168273ffffffffffffffffffffffffffffffffffffffff1614156107e1576040517f08c379a00000000000000000000000000000000000000000000000000000000081526004016107d89061222f565b60405180910390fd5b600360008373ffffffffffffffffffffffffffffffffffffffff1673ffffffffffffffffffffffffffffffffffffffff168152602001908152602001600020549050919050565b610830610f0b565b61083a6000610f89565b565b6000600760009054906101000a900473ffffffffffffffffffffffffffffffffffffffff16905090565b60606001805461087590611f69565b80601f01602080910402602001604051908101604052809291908181526020018280546108a190611f69565b80156108ee5780601f106108c3576101008083540402835291602001916108ee565b820191906000526020600020905b8154815290600101906020018083116108d157829003601f168201915b5050505050905090565b61090a610903610b4e565b838361104f565b5050565b61091f610919610b4e565b83610c0f565b61095e576040517f08c379a000000000000000000000000000000000000000000000000000000000815260040161095590612131565b60405180910390fd5b61096a848484846111bc565b50505050565b606061097b82610b03565b6000610985611218565b9050808360405160200161099a9291906122ac565b604051602081830303815290604052915050919050565b6000600560008473ffffffffffffffffffffffffffffffffffffffff1673ffffffffffffffffffffffffffffffffffffffff16815260200190815260200160002060008373ffffffffffffffffffffffffffffffffffffffff1673ffffffffffffffffffffffffffffffffffffffff16815260200190815260200160002060009054906101000a900460ff16905092915050565b6000610a4f610f0b565b610a596008611238565b6000610a65600861124e565b9050610a71848261125c565b610a7b818461127a565b8091505092915050565b610a8d610f0b565b610a96816112ee565b50565b60007f01ffc9a7000000000000000000000000000000000000000000000000000000007bffffffffffffffffffffffffffffffffffffffffffffffffffffffff1916827bffffffffffffffffffffffffffffffffffffffffffffffffffffffff1916149050919050565b610b0c81611372565b610b4b576040517f08c379a0000000000000000000000000000000000000000000000000000000008152600401610b429061219d565b60405180910390fd5b50565b600033905090565b816004600083815260200190815260200160002060006101000a81548173ffffffffffffffffffffffffffffffffffffffff021916908373ffffffffffffffffffffffffffffffffffffffff160217905550808273ffffffffffffffffffffffffffffffffffffffff16610bc9836106be565b73ffffffffffffffffffffffffffffffffffffffff167f8c5be1e5ebec7d5bd14f71427d1e84f3dd0314c0f7b2291e5b200ac8c7c3b92560405160405180910390a45050565b600080610c1b836106be565b90508073ffffffffffffffffffffffffffffffffffffffff168473ffffffffffffffffffffffffffffffffffffffff161480610c5d5750610c5c81856109b1565b5b80610c9b57508373ffffffffffffffffffffffffffffffffffffffff16610c83846104e0565b73ffffffffffffffffffffffffffffffffffffffff16145b91505092915050565b8273ffffffffffffffffffffffffffffffffffffffff16610cc4826106be565b73ffffffffffffffffffffffffffffffffffffffff1614610d1a576040517f08c379a0000000000000000000000000000000000000000000000000000000008152600401610d1190612346565b60405180910390fd5b600073ffffffffffffffffffffffffffffffffffffffff168273ffffffffffffffffffffffffffffffffffffffff161415610d8a576040517f08c379a0000000000000000000000000000000000000000000000000000000008152600401610d81906123d8565b60405180910390fd5b610d958383836113de565b610da0600082610b56565b6001600360008573ffffffffffffffffffffffffffffffffffffffff1673ffffffffffffffffffffffffffffffffffffffff1681526020019081526020016000206000828254610df09190612427565b925050819055506001600360008473ffffffffffffffffffffffffffffffffffffffff1673ffffffffffffffffffffffffffffffffffffffff1681526020019081526020016000206000828254610e47919061245b565b92505081905550816002600083815260200190815260200160002060006101000a81548173ffffffffffffffffffffffffffffffffffffffff021916908373ffffffffffffffffffffffffffffffffffffffff160217905550808273ffffffffffffffffffffffffffffffffffffffff168473ffffffffffffffffffffffffffffffffffffffff167fddf252ad1be2c89b69c2b068fc378daa952ba7f163c4a11628f55a4df523b3ef60405160405180910390a4610f068383836113e3565b505050565b610f13610b4e565b73ffffffffffffffffffffffffffffffffffffffff16610f3161083c565b73ffffffffffffffffffffffffffffffffffffffff1614610f87576040517f08c379a0000000000000000000000000000000000000000000000000000000008152600401610f7e906124fd565b60405180910390fd5b565b6000600760009054906101000a900473ffffffffffffffffffffffffffffffffffffffff16905081600760006101000a81548173ffffffffffffffffffffffffffffffffffffffff021916908373ffffffffffffffffffffffffffffffffffffffff1602179055508173ffffffffffffffffffffffffffffffffffffffff168173ffffffffffffffffffffffffffffffffffffffff167f8be0079c531659141344cd1fd0a4f28419497f9722a3daafe3b4186f6b6457e060405160405180910390a35050565b8173ffffffffffffffffffffffffffffffffffffffff168373ffffffffffffffffffffffffffffffffffffffff1614156110be576040517f08c379a00000000000000000000000000000000000000000000000000000000081526004016110b590612569565b60405180910390fd5b80600560008573ffffffffffffffffffffffffffffffffffffffff1673ffffffffffffffffffffffffffffffffffffffff16815260200190815260200160002060008473ffffffffffffffffffffffffffffffffffffffff1673ffffffffffffffffffffffffffffffffffffffff16815260200190815260200160002060006101000a81548160ff0219169083151502179055508173ffffffffffffffffffffffffffffffffffffffff168373ffffffffffffffffffffffffffffffffffffffff167f17307eab39ab6107e8899845ad3d59bd9653f200f220920489ca2b5937696c31836040516111af919061192e565b60405180910390a3505050565b6111c7848484610ca4565b6111d3848484846113e8565b611212576040517f08c379a0000000000000000000000000000000000000000000000000000000008152600401611209906125fb565b60405180910390fd5b50505050565b60606040518060600160405280603581526020016128fb60359139905090565b6001816000016000828254019250508190555050565b600081600001549050919050565b61127682826040518060200160405280600081525061157f565b5050565b61128382611372565b6112c2576040517f08c379a00000000000000000000000000000000000000000000000000000000081526004016112b99061268d565b60405180910390fd5b806006600084815260200190815260200160002090805190602001906112e99291906117d7565b505050565b6112f6610f0b565b600073ffffffffffffffffffffffffffffffffffffffff168173ffffffffffffffffffffffffffffffffffffffff161415611366576040517f08c379a000000000000000000000000000000000000000000000000000000000815260040161135d9061271f565b60405180910390fd5b61136f81610f89565b50565b60008073ffffffffffffffffffffffffffffffffffffffff166002600084815260200190815260200160002060009054906101000a900473ffffffffffffffffffffffffffffffffffffffff1673ffffffffffffffffffffffffffffffffffffffff1614159050919050565b505050565b505050565b60006114098473ffffffffffffffffffffffffffffffffffffffff166115da565b15611572578373ffffffffffffffffffffffffffffffffffffffff1663150b7a02611432610b4e565b8786866040518563ffffffff1660e01b81526004016114549493929190612794565b602060405180830381600087803b15801561146e57600080fd5b505af192505050801561149f57506040513d601f19601f8201168201806040525081019061149c91906127f5565b60015b611522573d80600081146114cf576040519150601f19603f3d011682016040523d82523d6000602084013e6114d4565b606091505b5060008151141561151a576040517f08c379a0000000000000000000000000000000000000000000000000000000008152600401611511906125fb565b60405180910390fd5b805181602001fd5b63150b7a0260e01b7bffffffffffffffffffffffffffffffffffffffffffffffffffffffff1916817bffffffffffffffffffffffffffffffffffffffffffffffffffffffff191614915050611577565b600190505b949350505050565b61158983836115fd565b61159660008484846113e8565b6115d5576040517f08c379a00000000000000000000000000000000000000000000000000000000081526004016115cc906125fb565b60405180910390fd5b505050565b6000808273ffffffffffffffffffffffffffffffffffffffff163b119050919050565b600073ffffffffffffffffffffffffffffffffffffffff168273ffffffffffffffffffffffffffffffffffffffff16141561166d576040517f08c379a00000000000000000000000000000000000000000000000000000000081526004016116649061286e565b60405180910390fd5b61167681611372565b156116b6576040517f08c379a00000000000000000000000000000000000000000000000000000000081526004016116ad906128da565b60405180910390fd5b6116c2600083836113de565b6001600360008473ffffffffffffffffffffffffffffffffffffffff1673ffffffffffffffffffffffffffffffffffffffff1681526020019081526020016000206000828254611712919061245b565b92505081905550816002600083815260200190815260200160002060006101000a81548173ffffffffffffffffffffffffffffffffffffffff021916908373ffffffffffffffffffffffffffffffffffffffff160217905550808273ffffffffffffffffffffffffffffffffffffffff16600073ffffffffffffffffffffffffffffffffffffffff167fddf252ad1be2c89b69c2b068fc378daa952ba7f163c4a11628f55a4df523b3ef60405160405180910390a46117d3600083836113e3565b5050565b8280546117e390611f69565b90600052602060002090601f016020900481019282611805576000855561184c565b82601f1061181e57805160ff191683800117855561184c565b8280016001018555821561184c579182015b8281111561184b578251825591602001919060010190611830565b5b509050611859919061185d565b5090565b5b8082111561187657600081600090555060010161185e565b5090565b6000604051905090565b600080fd5b600080fd5b60007fffffffff0000000000000000000000000000000000000000000000000000000082169050919050565b6118c38161188e565b81146118ce57600080fd5b50565b6000813590506118e0816118ba565b92915050565b6000602082840312156118fc576118fb611884565b5b600061190a848285016118d1565b91505092915050565b60008115159050919050565b61192881611913565b82525050565b6000602082019050611943600083018461191f565b92915050565b600081519050919050565b600082825260208201905092915050565b60005b83811015611983578082015181840152602081019050611968565b83811115611992576000848401525b50505050565b6000601f19601f8301169050919050565b60006119b482611949565b6119be8185611954565b93506119ce818560208601611965565b6119d781611998565b840191505092915050565b600060208201905081810360008301526119fc81846119a9565b905092915050565b6000819050919050565b611a1781611a04565b8114611a2257600080fd5b50565b600081359050611a3481611a0e565b92915050565b600060208284031215611a5057611a4f611884565b5b6000611a5e84828501611a25565b91505092915050565b600073ffffffffffffffffffffffffffffffffffffffff82169050919050565b6000611a9282611a67565b9050919050565b611aa281611a87565b82525050565b6000602082019050611abd6000830184611a99565b92915050565b611acc81611a87565b8114611ad757600080fd5b50565b600081359050611ae981611ac3565b92915050565b60008060408385031215611b0657611b05611884565b5b6000611b1485828601611ada565b9250506020611b2585828601611a25565b9150509250929050565b600080600060608486031215611b4857611b47611884565b5b6000611b5686828701611ada565b9350506020611b6786828701611ada565b9250506040611b7886828701611a25565b9150509250925092565b600060208284031215611b9857611b97611884565b5b6000611ba684828501611ada565b91505092915050565b611bb881611a04565b82525050565b6000602082019050611bd36000830184611baf565b92915050565b611be281611913565b8114611bed57600080fd5b50565b600081359050611bff81611bd9565b92915050565b60008060408385031215611c1c57611c1b611884565b5b6000611c2a85828601611ada565b9250506020611c3b85828601611bf0565b9150509250929050565b600080fd5b600080fd5b7f4e487b7100000000000000000000000000000000000000000000000000000000600052604160045260246000fd5b611c8782611998565b810181811067ffffffffffffffff82111715611ca657611ca5611c4f565b5b80604052505050565b6000611cb961187a565b9050611cc58282611c7e565b919050565b600067ffffffffffffffff821115611ce557611ce4611c4f565b5b611cee82611998565b9050602081019050919050565b82818337600083830152505050565b6000611d1d611d1884611cca565b611caf565b905082815260208101848484011115611d3957611d38611c4a565b5b611d44848285611cfb565b509392505050565b600082601f830112611d6157611d60611c45565b5b8135611d71848260208601611d0a565b91505092915050565b60008060008060808587031215611d9457611d93611884565b5b6000611da287828801611ada565b9450506020611db387828801611ada565b9350506040611dc487828801611a25565b925050606085013567ffffffffffffffff811115611de557611de4611889565b5b611df187828801611d4c565b91505092959194509250565b60008060408385031215611e1457611e13611884565b5b6000611e2285828601611ada565b9250506020611e3385828601611ada565b9150509250929050565b600067ffffffffffffffff821115611e5857611e57611c4f565b5b611e6182611998565b9050602081019050919050565b6000611e81611e7c84611e3d565b611caf565b905082815260208101848484011115611e9d57611e9c611c4a565b5b611ea8848285611cfb565b509392505050565b600082601f830112611ec557611ec4611c45565b5b8135611ed5848260208601611e6e565b91505092915050565b60008060408385031215611ef557611ef4611884565b5b6000611f0385828601611ada565b925050602083013567ffffffffffffffff811115611f2457611f23611889565b5b611f3085828601611eb0565b9150509250929050565b7f4e487b7100000000000000000000000000000000000000000000000000000000600052602260045260246000fd5b60006002820490506001821680611f8157607f821691505b60208210811415611f9557611f94611f3a565b5b50919050565b7f4552433732313a20617070726f76616c20746f2063757272656e74206f776e6560008201527f7200000000000000000000000000000000000000000000000000000000000000602082015250565b6000611ff7602183611954565b915061200282611f9b565b604082019050919050565b6000602082019050818103600083015261202681611fea565b9050919050565b7f4552433732313a20617070726f76652063616c6c6572206973206e6f7420746f60008201527f6b656e206f776e6572206e6f7220617070726f76656420666f7220616c6c0000602082015250565b6000612089603e83611954565b91506120948261202d565b604082019050919050565b600060208201905081810360008301526120b88161207c565b9050919050565b7f4552433732313a2063616c6c6572206973206e6f7420746f6b656e206f776e6560008201527f72206e6f7220617070726f766564000000000000000000000000000000000000602082015250565b600061211b602e83611954565b9150612126826120bf565b604082019050919050565b6000602082019050818103600083015261214a8161210e565b9050919050565b7f4552433732313a20696e76616c696420746f6b656e2049440000000000000000600082015250565b6000612187601883611954565b915061219282612151565b602082019050919050565b600060208201905081810360008301526121b68161217a565b9050919050565b7f4552433732313a2061646472657373207a65726f206973206e6f74206120766160008201527f6c6964206f776e65720000000000000000000000000000000000000000000000602082015250565b6000612219602983611954565b9150612224826121bd565b604082019050919050565b600060208201905081810360008301526122488161220c565b9050919050565b600081905092915050565b600061226582611949565b61226f818561224f565b935061227f818560208601611965565b80840191505092915050565b6000819050919050565b6122a66122a182611a04565b61228b565b82525050565b60006122b8828561225a565b91506122c48284612295565b6020820191508190509392505050565b7f4552433732313a207472616e736665722066726f6d20696e636f72726563742060008201527f6f776e6572000000000000000000000000000000000000000000000000000000602082015250565b6000612330602583611954565b915061233b826122d4565b604082019050919050565b6000602082019050818103600083015261235f81612323565b9050919050565b7f4552433732313a207472616e7366657220746f20746865207a65726f2061646460008201527f7265737300000000000000000000000000000000000000000000000000000000602082015250565b60006123c2602483611954565b91506123cd82612366565b604082019050919050565b600060208201905081810360008301526123f1816123b5565b9050919050565b7f4e487b7100000000000000000000000000000000000000000000000000000000600052601160045260246000fd5b600061243282611a04565b915061243d83611a04565b9250828210156124505761244f6123f8565b5b828203905092915050565b600061246682611a04565b915061247183611a04565b9250827fffffffffffffffffffffffffffffffffffffffffffffffffffffffffffffffff038211156124a6576124a56123f8565b5b828201905092915050565b7f4f776e61626c653a2063616c6c6572206973206e6f7420746865206f776e6572600082015250565b60006124e7602083611954565b91506124f2826124b1565b602082019050919050565b60006020820190508181036000830152612516816124da565b9050919050565b7f4552433732313a20617070726f766520746f2063616c6c657200000000000000600082015250565b6000612553601983611954565b915061255e8261251d565b602082019050919050565b6000602082019050818103600083015261258281612546565b9050919050565b7f4552433732313a207472616e7366657220746f206e6f6e20455243373231526560008201527f63656976657220696d706c656d656e7465720000000000000000000000000000602082015250565b60006125e5603283611954565b91506125f082612589565b604082019050919050565b60006020820190508181036000830152612614816125d8565b9050919050565b7f45524337323155524953746f726167653a2055524920736574206f66206e6f6e60008201527f6578697374656e7420746f6b656e000000000000000000000000000000000000602082015250565b6000612677602e83611954565b91506126828261261b565b604082019050919050565b600060208201905081810360008301526126a68161266a565b9050919050565b7f4f776e61626c653a206e6577206f776e657220697320746865207a65726f206160008201527f6464726573730000000000000000000000000000000000000000000000000000602082015250565b6000612709602683611954565b9150612714826126ad565b604082019050919050565b60006020820190508181036000830152612738816126fc565b9050919050565b600081519050919050565b600082825260208201905092915050565b60006127668261273f565b612770818561274a565b9350612780818560208601611965565b61278981611998565b840191505092915050565b60006080820190506127a96000830187611a99565b6127b66020830186611a99565b6127c36040830185611baf565b81810360608301526127d5818461275b565b905095945050505050565b6000815190506127ef816118ba565b92915050565b60006020828403121561280b5761280a611884565b5b6000612819848285016127e0565b91505092915050565b7f4552433732313a206d696e7420746f20746865207a65726f2061646472657373600082015250565b6000612858602083611954565b915061286382612822565b602082019050919050565b600060208201905081810360008301526128878161284b565b9050919050565b7f4552433732313a20746f6b656e20616c7265616479206d696e74656400000000600082015250565b60006128c4601c83611954565b91506128cf8261288e565b602082019050919050565b600060208201905081810360008301526128f3816128b7565b905091905056fe697066733a2f516d65394b36746a6738637a47515a6e4356674a723761626a446e6947336d44634d7573616a6845437a354d646b2fa26469706673582212204182040e217fe4b7af8f71ca9b151209cf7ea3dd045d42a3fc5946e08472f6ef64736f6c63430008090033",
  "linkReferences": {},
  "deployedLinkReferences": {}
}